{
  "_format": "hh-sol-artifact-1",
  "contractName": "Transactions",
  "sourceName": "contracts/Transactions.sol",
  "abi": [
    {
      "anonymous": false,
      "inputs": [
        {
          "indexed": false,
          "internalType": "address",
          "name": "from",
          "type": "address"
        },
        {
          "indexed": false,
          "internalType": "address",
          "name": "receiver",
          "type": "address"
        },
        {
          "indexed": false,
          "internalType": "uint256",
          "name": "amount",
          "type": "uint256"
        }
      ],
      "name": "Transfer",
      "type": "event"
    },
    {
      "inputs": [
        {
          "internalType": "address",
          "name": "receiver",
          "type": "address"
        },
        {
          "internalType": "uint256",
          "name": "amount",
          "type": "uint256"
        }
      ],
      "name": "addToBlockchain",
      "outputs": [],
      "stateMutability": "payable",
      "type": "function"
    }
  ],
  "bytecode": "0x608060405234801561001057600080fd5b506102e5806100206000396000f3fe60806040526004361061001e5760003560e01c8063b64782e514610023575b600080fd5b61003d600480360381019061003891906101b4565b61003f565b005b600060405180606001604052803373ffffffffffffffffffffffffffffffffffffffff1681526020018473ffffffffffffffffffffffffffffffffffffffff16815260200183815250908060018154018082558091505060019003906000526020600020906003020160009091909190915060008201518160000160006101000a81548173ffffffffffffffffffffffffffffffffffffffff021916908373ffffffffffffffffffffffffffffffffffffffff16021790555060208201518160010160006101000a81548173ffffffffffffffffffffffffffffffffffffffff021916908373ffffffffffffffffffffffffffffffffffffffff1602179055506040820151816002015550507fddf252ad1be2c89b69c2b068fc378daa952ba7f163c4a11628f55a4df523b3ef33838360405161017e9392919061020e565b60405180910390a15050565b60008135905061019981610281565b92915050565b6000813590506101ae81610298565b92915050565b600080604083850312156101c757600080fd5b60006101d58582860161018a565b92505060206101e68582860161019f565b9150509250929050565b6101f981610245565b82525050565b61020881610277565b82525050565b600060608201905061022360008301866101f0565b61023060208301856101f0565b61023d60408301846101ff565b949350505050565b600061025082610257565b9050919050565b600073ffffffffffffffffffffffffffffffffffffffff82169050919050565b6000819050919050565b61028a81610245565b811461029557600080fd5b50565b6102a181610277565b81146102ac57600080fd5b5056fea2646970667358221220183ca8570acccdc0eed75617d581422ef3fda6755b073082843d34ded96ba10864736f6c63430008000033",
  "linkReferences": {},
  "deployedLinkReferences": {}
}